{
  "address": "0x5FbDB2315678afecb367f032d93F642f64180aa3",
  "abi": [
    {
      "inputs": [],
      "stateMutability": "nonpayable",
      "type": "constructor"
    },
    {
      "anonymous": false,
      "inputs": [
        {
          "indexed": false,
          "internalType": "address",
          "name": "buyer",
          "type": "address"
        },
        {
          "indexed": false,
          "internalType": "uint256",
          "name": "orderId",
          "type": "uint256"
        },
        {
          "indexed": false,
          "internalType": "uint256",
          "name": "itemId",
          "type": "uint256"
        }
      ],
      "name": "Buy",
      "type": "event"
    },
    {
      "anonymous": false,
      "inputs": [
        {
          "indexed": false,
          "internalType": "string",
          "name": "name",
          "type": "string"
        },
        {
          "indexed": false,
          "internalType": "uint256",
          "name": "cost",
          "type": "uint256"
        },
        {
          "indexed": false,
          "internalType": "uint256",
          "name": "quantity",
          "type": "uint256"
        }
      ],
      "name": "List",
      "type": "event"
    },
    {
      "inputs": [
        {
          "internalType": "uint256",
          "name": "_id",
          "type": "uint256"
        }
      ],
      "name": "buy",
      "outputs": [],
      "stateMutability": "payable",
      "type": "function"
    },
    {
      "inputs": [
        {
          "internalType": "uint256",
          "name": "",
          "type": "uint256"
        }
      ],
      "name": "items",
      "outputs": [
        {
          "internalType": "uint256",
          "name": "id",
          "type": "uint256"
        },
        {
          "internalType": "string",
          "name": "name",
          "type": "string"
        },
        {
          "internalType": "string",
          "name": "category",
          "type": "string"
        },
        {
          "internalType": "string",
          "name": "image",
          "type": "string"
        },
        {
          "internalType": "uint256",
          "name": "cost",
          "type": "uint256"
        },
        {
          "internalType": "uint256",
          "name": "rating",
          "type": "uint256"
        },
        {
          "internalType": "uint256",
          "name": "stock",
          "type": "uint256"
        }
      ],
      "stateMutability": "view",
      "type": "function"
    },
    {
      "inputs": [
        {
          "internalType": "uint256",
          "name": "_id",
          "type": "uint256"
        },
        {
          "internalType": "string",
          "name": "_name",
          "type": "string"
        },
        {
          "internalType": "string",
          "name": "_category",
          "type": "string"
        },
        {
          "internalType": "string",
          "name": "_image",
          "type": "string"
        },
        {
          "internalType": "uint256",
          "name": "_cost",
          "type": "uint256"
        },
        {
          "internalType": "uint256",
          "name": "_rating",
          "type": "uint256"
        },
        {
          "internalType": "uint256",
          "name": "_stock",
          "type": "uint256"
        }
      ],
      "name": "list",
      "outputs": [],
      "stateMutability": "nonpayable",
      "type": "function"
    },
    {
      "inputs": [
        {
          "internalType": "address",
          "name": "",
          "type": "address"
        }
      ],
      "name": "orderCount",
      "outputs": [
        {
          "internalType": "uint256",
          "name": "",
          "type": "uint256"
        }
      ],
      "stateMutability": "view",
      "type": "function"
    },
    {
      "inputs": [
        {
          "internalType": "address",
          "name": "",
          "type": "address"
        },
        {
          "internalType": "uint256",
          "name": "",
          "type": "uint256"
        }
      ],
      "name": "orders",
      "outputs": [
        {
          "internalType": "uint256",
          "name": "time",
          "type": "uint256"
        },
        {
          "components": [
            {
              "internalType": "uint256",
              "name": "id",
              "type": "uint256"
            },
            {
              "internalType": "string",
              "name": "name",
              "type": "string"
            },
            {
              "internalType": "string",
              "name": "category",
              "type": "string"
            },
            {
              "internalType": "string",
              "name": "image",
              "type": "string"
            },
            {
              "internalType": "uint256",
              "name": "cost",
              "type": "uint256"
            },
            {
              "internalType": "uint256",
              "name": "rating",
              "type": "uint256"
            },
            {
              "internalType": "uint256",
              "name": "stock",
              "type": "uint256"
            }
          ],
          "internalType": "struct Decentralazon.Item",
          "name": "item",
          "type": "tuple"
        }
      ],
      "stateMutability": "view",
      "type": "function"
    },
    {
      "inputs": [],
      "name": "owner",
      "outputs": [
        {
          "internalType": "address",
          "name": "",
          "type": "address"
        }
      ],
      "stateMutability": "view",
      "type": "function"
    },
    {
      "inputs": [],
      "name": "withdraw",
      "outputs": [],
      "stateMutability": "nonpayable",
      "type": "function"
    }
  ],
  "transactionHash": "0x609308505cd2a48c99ce58bbff50a899709b987a2f3d79082d2e5d7c458455a6",
  "args": [],
  "numDeployments": 1,
  "solcInputHash": "1604b75a4158e3a118144b436a7a0d78",
  "bytecode": "0x608060405234801561001057600080fd5b50336000806101000a81548173ffffffffffffffffffffffffffffffffffffffff021916908373ffffffffffffffffffffffffffffffffffffffff1602179055506119e6806100606000396000f3fe6080604052600436106100705760003560e01c80638da5cb5b1161004e5780638da5cb5b14610107578063bfb231d214610132578063d96a094a14610175578063eea8a7e81461019157610070565b80633ccfd60b14610075578063713d856b1461008c578063793b8c6d146100c9575b600080fd5b34801561008157600080fd5b5061008a6101ba565b005b34801561009857600080fd5b506100b360048036038101906100ae9190610e00565b610318565b6040516100c09190610e46565b60405180910390f35b3480156100d557600080fd5b506100f060048036038101906100eb9190610e8d565b610330565b6040516100fe929190611016565b60405180910390f35b34801561011357600080fd5b5061011c610549565b6040516101299190611055565b60405180910390f35b34801561013e57600080fd5b5061015960048036038101906101549190611070565b61056d565b60405161016c97969594939291906110e7565b60405180910390f35b61018f600480360381019061018a9190611070565b610747565b005b34801561019d57600080fd5b506101b860048036038101906101b391906112a0565b610c03565b005b60008054906101000a900473ffffffffffffffffffffffffffffffffffffffff1673ffffffffffffffffffffffffffffffffffffffff163373ffffffffffffffffffffffffffffffffffffffff1614610248576040517f08c379a000000000000000000000000000000000000000000000000000000000815260040161023f90611408565b60405180910390fd5b60008060009054906101000a900473ffffffffffffffffffffffffffffffffffffffff1673ffffffffffffffffffffffffffffffffffffffff164760405161028f90611459565b60006040518083038185875af1925050503d80600081146102cc576040519150601f19603f3d011682016040523d82523d6000602084013e6102d1565b606091505b5050905080610315576040517f08c379a000000000000000000000000000000000000000000000000000000000815260040161030c906114ba565b60405180910390fd5b50565b60026020528060005260406000206000915090505481565b600360205281600052604060002060205280600052604060002060009150915050806000015490806001016040518060e00160405290816000820154815260200160018201805461038090611509565b80601f01602080910402602001604051908101604052809291908181526020018280546103ac90611509565b80156103f95780601f106103ce576101008083540402835291602001916103f9565b820191906000526020600020905b8154815290600101906020018083116103dc57829003601f168201915b5050505050815260200160028201805461041290611509565b80601f016020809104026020016040519081016040528092919081815260200182805461043e90611509565b801561048b5780601f106104605761010080835404028352916020019161048b565b820191906000526020600020905b81548152906001019060200180831161046e57829003601f168201915b505050505081526020016003820180546104a490611509565b80601f01602080910402602001604051908101604052809291908181526020018280546104d090611509565b801561051d5780601f106104f25761010080835404028352916020019161051d565b820191906000526020600020905b81548152906001019060200180831161050057829003601f168201915b505050505081526020016004820154815260200160058201548152602001600682015481525050905082565b60008054906101000a900473ffffffffffffffffffffffffffffffffffffffff1681565b600160205280600052604060002060009150905080600001549080600101805461059690611509565b80601f01602080910402602001604051908101604052809291908181526020018280546105c290611509565b801561060f5780601f106105e45761010080835404028352916020019161060f565b820191906000526020600020905b8154815290600101906020018083116105f257829003601f168201915b50505050509080600201805461062490611509565b80601f016020809104026020016040519081016040528092919081815260200182805461065090611509565b801561069d5780601f106106725761010080835404028352916020019161069d565b820191906000526020600020905b81548152906001019060200180831161068057829003601f168201915b5050505050908060030180546106b290611509565b80601f01602080910402602001604051908101604052809291908181526020018280546106de90611509565b801561072b5780601f106107005761010080835404028352916020019161072b565b820191906000526020600020905b81548152906001019060200180831161070e57829003601f168201915b5050505050908060040154908060050154908060060154905087565b6000600160008381526020019081526020016000206040518060e00160405290816000820154815260200160018201805461078190611509565b80601f01602080910402602001604051908101604052809291908181526020018280546107ad90611509565b80156107fa5780601f106107cf576101008083540402835291602001916107fa565b820191906000526020600020905b8154815290600101906020018083116107dd57829003601f168201915b5050505050815260200160028201805461081390611509565b80601f016020809104026020016040519081016040528092919081815260200182805461083f90611509565b801561088c5780601f106108615761010080835404028352916020019161088c565b820191906000526020600020905b81548152906001019060200180831161086f57829003601f168201915b505050505081526020016003820180546108a590611509565b80601f01602080910402602001604051908101604052809291908181526020018280546108d190611509565b801561091e5780601f106108f35761010080835404028352916020019161091e565b820191906000526020600020905b81548152906001019060200180831161090157829003601f168201915b5050505050815260200160048201548152602001600582015481526020016006820154815250509050806080015134101561098e576040517f08c379a000000000000000000000000000000000000000000000000000000000815260040161098590611586565b60405180910390fd5b60008160c00151116109d5576040517f08c379a00000000000000000000000000000000000000000000000000000000081526004016109cc906115f2565b60405180910390fd5b60006040518060400160405280428152602001838152509050600260003373ffffffffffffffffffffffffffffffffffffffff1673ffffffffffffffffffffffffffffffffffffffff1681526020019081526020016000206000815480929190610a3e90611641565b919050555080600360003373ffffffffffffffffffffffffffffffffffffffff1673ffffffffffffffffffffffffffffffffffffffff1681526020019081526020016000206000600260003373ffffffffffffffffffffffffffffffffffffffff1673ffffffffffffffffffffffffffffffffffffffff16815260200190815260200160002054815260200190815260200160002060008201518160000155602082015181600101600082015181600001556020820151816001019081610b059190611835565b506040820151816002019081610b1b9190611835565b506060820151816003019081610b319190611835565b506080820151816004015560a0820151816005015560c08201518160060155505090505060018260c00151610b669190611907565b60016000858152602001908152602001600020600601819055507f1cbc5ab135991bd2b6a4b034a04aa2aa086dac1371cb9b16b8b5e2ed6b036bed33600260003373ffffffffffffffffffffffffffffffffffffffff1673ffffffffffffffffffffffffffffffffffffffff168152602001908152602001600020548460000151604051610bf69392919061193b565b60405180910390a1505050565b60008054906101000a900473ffffffffffffffffffffffffffffffffffffffff1673ffffffffffffffffffffffffffffffffffffffff163373ffffffffffffffffffffffffffffffffffffffff1614610c91576040517f08c379a0000000000000000000000000000000000000000000000000000000008152600401610c8890611408565b60405180910390fd5b60006040518060e0016040528089815260200188815260200187815260200186815260200185815260200184815260200183815250905080600160008a8152602001908152602001600020600082015181600001556020820151816001019081610cfb9190611835565b506040820151816002019081610d119190611835565b506060820151816003019081610d279190611835565b506080820151816004015560a0820151816005015560c082015181600601559050507ffdbe2a012c10ec01592653978eaa09b5ca60b143a0e617505b2ebcbd911ec5b8878584604051610d7c93929190611972565b60405180910390a15050505050505050565b6000604051905090565b600080fd5b600080fd5b600073ffffffffffffffffffffffffffffffffffffffff82169050919050565b6000610dcd82610da2565b9050919050565b610ddd81610dc2565b8114610de857600080fd5b50565b600081359050610dfa81610dd4565b92915050565b600060208284031215610e1657610e15610d98565b5b6000610e2484828501610deb565b91505092915050565b6000819050919050565b610e4081610e2d565b82525050565b6000602082019050610e5b6000830184610e37565b92915050565b610e6a81610e2d565b8114610e7557600080fd5b50565b600081359050610e8781610e61565b92915050565b60008060408385031215610ea457610ea3610d98565b5b6000610eb285828601610deb565b9250506020610ec385828601610e78565b9150509250929050565b610ed681610e2d565b82525050565b600081519050919050565b600082825260208201905092915050565b60005b83811015610f16578082015181840152602081019050610efb565b60008484015250505050565b6000601f19601f8301169050919050565b6000610f3e82610edc565b610f488185610ee7565b9350610f58818560208601610ef8565b610f6181610f22565b840191505092915050565b600060e083016000830151610f846000860182610ecd565b5060208301518482036020860152610f9c8282610f33565b91505060408301518482036040860152610fb68282610f33565b91505060608301518482036060860152610fd08282610f33565b9150506080830151610fe56080860182610ecd565b5060a0830151610ff860a0860182610ecd565b5060c083015161100b60c0860182610ecd565b508091505092915050565b600060408201905061102b6000830185610e37565b818103602083015261103d8184610f6c565b90509392505050565b61104f81610dc2565b82525050565b600060208201905061106a6000830184611046565b92915050565b60006020828403121561108657611085610d98565b5b600061109484828501610e78565b91505092915050565b600082825260208201905092915050565b60006110b982610edc565b6110c3818561109d565b93506110d3818560208601610ef8565b6110dc81610f22565b840191505092915050565b600060e0820190506110fc600083018a610e37565b818103602083015261110e81896110ae565b9050818103604083015261112281886110ae565b9050818103606083015261113681876110ae565b90506111456080830186610e37565b61115260a0830185610e37565b61115f60c0830184610e37565b98975050505050505050565b600080fd5b600080fd5b7f4e487b7100000000000000000000000000000000000000000000000000000000600052604160045260246000fd5b6111ad82610f22565b810181811067ffffffffffffffff821117156111cc576111cb611175565b5b80604052505050565b60006111df610d8e565b90506111eb82826111a4565b919050565b600067ffffffffffffffff82111561120b5761120a611175565b5b61121482610f22565b9050602081019050919050565b82818337600083830152505050565b600061124361123e846111f0565b6111d5565b90508281526020810184848401111561125f5761125e611170565b5b61126a848285611221565b509392505050565b600082601f8301126112875761128661116b565b5b8135611297848260208601611230565b91505092915050565b600080600080600080600060e0888a0312156112bf576112be610d98565b5b60006112cd8a828b01610e78565b975050602088013567ffffffffffffffff8111156112ee576112ed610d9d565b5b6112fa8a828b01611272565b965050604088013567ffffffffffffffff81111561131b5761131a610d9d565b5b6113278a828b01611272565b955050606088013567ffffffffffffffff81111561134857611347610d9d565b5b6113548a828b01611272565b94505060806113658a828b01610e78565b93505060a06113768a828b01610e78565b92505060c06113878a828b01610e78565b91505092959891949750929550565b7f4f6e6c79204f776e657220697320616c6c6f77656420746f2043616c6c20746860008201527f69732066756e6374696f6e000000000000000000000000000000000000000000602082015250565b60006113f2602b8361109d565b91506113fd82611396565b604082019050919050565b60006020820190508181036000830152611421816113e5565b9050919050565b600081905092915050565b50565b6000611443600083611428565b915061144e82611433565b600082019050919050565b600061146482611436565b9150819050919050565b7f7769746864726177206661696c65642100000000000000000000000000000000600082015250565b60006114a460108361109d565b91506114af8261146e565b602082019050919050565b600060208201905081810360008301526114d381611497565b9050919050565b7f4e487b7100000000000000000000000000000000000000000000000000000000600052602260045260246000fd5b6000600282049050600182168061152157607f821691505b602082108103611534576115336114da565b5b50919050565b7f4e65656420746f2073656e6420656e6f756768204554482e0000000000000000600082015250565b600061157060188361109d565b915061157b8261153a565b602082019050919050565b6000602082019050818103600083015261159f81611563565b9050919050565b7f536f727279212120446f6e2774206861766520656e6f7567682073746f636b00600082015250565b60006115dc601f8361109d565b91506115e7826115a6565b602082019050919050565b6000602082019050818103600083015261160b816115cf565b9050919050565b7f4e487b7100000000000000000000000000000000000000000000000000000000600052601160045260246000fd5b600061164c82610e2d565b91507fffffffffffffffffffffffffffffffffffffffffffffffffffffffffffffffff820361167e5761167d611612565b5b600182019050919050565b60008190508160005260206000209050919050565b60006020601f8301049050919050565b600082821b905092915050565b6000600883026116eb7fffffffffffffffffffffffffffffffffffffffffffffffffffffffffffffffff826116ae565b6116f586836116ae565b95508019841693508086168417925050509392505050565b6000819050919050565b600061173261172d61172884610e2d565b61170d565b610e2d565b9050919050565b6000819050919050565b61174c83611717565b61176061175882611739565b8484546116bb565b825550505050565b600090565b611775611768565b611780818484611743565b505050565b5b818110156117a45761179960008261176d565b600181019050611786565b5050565b601f8211156117e9576117ba81611689565b6117c38461169e565b810160208510156117d2578190505b6117e66117de8561169e565b830182611785565b50505b505050565b600082821c905092915050565b600061180c600019846008026117ee565b1980831691505092915050565b600061182583836117fb565b9150826002028217905092915050565b61183e82610edc565b67ffffffffffffffff81111561185757611856611175565b5b6118618254611509565b61186c8282856117a8565b600060209050601f83116001811461189f576000841561188d578287015190505b6118978582611819565b8655506118ff565b601f1984166118ad86611689565b60005b828110156118d5578489015182556001820191506020850194506020810190506118b0565b868310156118f257848901516118ee601f8916826117fb565b8355505b6001600288020188555050505b505050505050565b600061191282610e2d565b915061191d83610e2d565b925082820390508181111561193557611934611612565b5b92915050565b60006060820190506119506000830186611046565b61195d6020830185610e37565b61196a6040830184610e37565b949350505050565b6000606082019050818103600083015261198c81866110ae565b905061199b6020830185610e37565b6119a86040830184610e37565b94935050505056fea2646970667358221220d356f3b9a63fa7fcc2045616c5b6e10bc0c59be909338929d90d1aba9fcfcc1164736f6c63430008120033",
  "devdoc": {
    "kind": "dev",
    "methods": {},
    "version": 1
  },
  "userdoc": {
    "kind": "user",
    "methods": {},
    "version": 1
  },
  "storageLayout": {
    "storage": [
      {
        "astId": 3,
        "contract": "contracts/Decentralazon.sol:Decentralazon",
        "label": "owner",
        "offset": 0,
        "slot": "0",
        "type": "t_address"
      },
      {
        "astId": 29,
        "contract": "contracts/Decentralazon.sol:Decentralazon",
        "label": "items",
        "offset": 0,
        "slot": "1",
        "type": "t_mapping(t_uint256,t_struct(Item)18_storage)"
      },
      {
        "astId": 33,
        "contract": "contracts/Decentralazon.sol:Decentralazon",
        "label": "orderCount",
        "offset": 0,
        "slot": "2",
        "type": "t_mapping(t_address,t_uint256)"
      },
      {
        "astId": 40,
        "contract": "contracts/Decentralazon.sol:Decentralazon",
        "label": "orders",
        "offset": 0,
        "slot": "3",
        "type": "t_mapping(t_address,t_mapping(t_uint256,t_struct(Order)24_storage))"
      }
    ],
    "types": {
      "t_address": {
        "encoding": "inplace",
        "label": "address",
        "numberOfBytes": "20"
      },
      "t_mapping(t_address,t_mapping(t_uint256,t_struct(Order)24_storage))": {
        "encoding": "mapping",
        "key": "t_address",
        "label": "mapping(address => mapping(uint256 => struct Decentralazon.Order))",
        "numberOfBytes": "32",
        "value": "t_mapping(t_uint256,t_struct(Order)24_storage)"
      },
      "t_mapping(t_address,t_uint256)": {
        "encoding": "mapping",
        "key": "t_address",
        "label": "mapping(address => uint256)",
        "numberOfBytes": "32",
        "value": "t_uint256"
      },
      "t_mapping(t_uint256,t_struct(Item)18_storage)": {
        "encoding": "mapping",
        "key": "t_uint256",
        "label": "mapping(uint256 => struct Decentralazon.Item)",
        "numberOfBytes": "32",
        "value": "t_struct(Item)18_storage"
      },
      "t_mapping(t_uint256,t_struct(Order)24_storage)": {
        "encoding": "mapping",
        "key": "t_uint256",
        "label": "mapping(uint256 => struct Decentralazon.Order)",
        "numberOfBytes": "32",
        "value": "t_struct(Order)24_storage"
      },
      "t_string_storage": {
        "encoding": "bytes",
        "label": "string",
        "numberOfBytes": "32"
      },
      "t_struct(Item)18_storage": {
        "encoding": "inplace",
        "label": "struct Decentralazon.Item",
        "members": [
          {
            "astId": 5,
            "contract": "contracts/Decentralazon.sol:Decentralazon",
            "label": "id",
            "offset": 0,
            "slot": "0",
            "type": "t_uint256"
          },
          {
            "astId": 7,
            "contract": "contracts/Decentralazon.sol:Decentralazon",
            "label": "name",
            "offset": 0,
            "slot": "1",
            "type": "t_string_storage"
          },
          {
            "astId": 9,
            "contract": "contracts/Decentralazon.sol:Decentralazon",
            "label": "category",
            "offset": 0,
            "slot": "2",
            "type": "t_string_storage"
          },
          {
            "astId": 11,
            "contract": "contracts/Decentralazon.sol:Decentralazon",
            "label": "image",
            "offset": 0,
            "slot": "3",
            "type": "t_string_storage"
          },
          {
            "astId": 13,
            "contract": "contracts/Decentralazon.sol:Decentralazon",
            "label": "cost",
            "offset": 0,
            "slot": "4",
            "type": "t_uint256"
          },
          {
            "astId": 15,
            "contract": "contracts/Decentralazon.sol:Decentralazon",
            "label": "rating",
            "offset": 0,
            "slot": "5",
            "type": "t_uint256"
          },
          {
            "astId": 17,
            "contract": "contracts/Decentralazon.sol:Decentralazon",
            "label": "stock",
            "offset": 0,
            "slot": "6",
            "type": "t_uint256"
          }
        ],
        "numberOfBytes": "224"
      },
      "t_struct(Order)24_storage": {
        "encoding": "inplace",
        "label": "struct Decentralazon.Order",
        "members": [
          {
            "astId": 20,
            "contract": "contracts/Decentralazon.sol:Decentralazon",
            "label": "time",
            "offset": 0,
            "slot": "0",
            "type": "t_uint256"
          },
          {
            "astId": 23,
            "contract": "contracts/Decentralazon.sol:Decentralazon",
            "label": "item",
            "offset": 0,
            "slot": "1",
            "type": "t_struct(Item)18_storage"
          }
        ],
        "numberOfBytes": "256"
      },
      "t_uint256": {
        "encoding": "inplace",
        "label": "uint256",
        "numberOfBytes": "32"
      }
    }
  }
}