{
  "address": "0x5FbDB2315678afecb367f032d93F642f64180aa3",
  "abi": [
    {
      "inputs": [],
      "stateMutability": "nonpayable",
      "type": "constructor"
    },
    {
      "anonymous": false,
      "inputs": [
        {
          "indexed": false,
          "internalType": "address",
          "name": "buyer",
          "type": "address"
        },
        {
          "indexed": false,
          "internalType": "uint256",
          "name": "orderId",
          "type": "uint256"
        },
        {
          "indexed": false,
          "internalType": "uint256",
          "name": "itemId",
          "type": "uint256"
        }
      ],
      "name": "Buy",
      "type": "event"
    },
    {
      "anonymous": false,
      "inputs": [
        {
          "indexed": false,
          "internalType": "string",
          "name": "name",
          "type": "string"
        },
        {
          "indexed": false,
          "internalType": "uint256",
          "name": "cost",
          "type": "uint256"
        },
        {
          "indexed": false,
          "internalType": "uint256",
          "name": "quantity",
          "type": "uint256"
        }
      ],
      "name": "List",
      "type": "event"
    },
    {
      "inputs": [
        {
          "internalType": "uint256",
          "name": "_id",
          "type": "uint256"
        }
      ],
      "name": "buy",
      "outputs": [],
      "stateMutability": "payable",
      "type": "function"
    },
    {
      "inputs": [],
      "name": "getTotalProduct",
      "outputs": [
        {
          "internalType": "uint256",
          "name": "",
          "type": "uint256"
        }
      ],
      "stateMutability": "view",
      "type": "function"
    },
    {
      "inputs": [
        {
          "internalType": "uint256",
          "name": "",
          "type": "uint256"
        }
      ],
      "name": "items",
      "outputs": [
        {
          "internalType": "uint256",
          "name": "id",
          "type": "uint256"
        },
        {
          "internalType": "string",
          "name": "name",
          "type": "string"
        },
        {
          "internalType": "string",
          "name": "category",
          "type": "string"
        },
        {
          "internalType": "string",
          "name": "description",
          "type": "string"
        },
        {
          "internalType": "string",
          "name": "image",
          "type": "string"
        },
        {
          "internalType": "uint256",
          "name": "cost",
          "type": "uint256"
        },
        {
          "internalType": "uint256",
          "name": "rating",
          "type": "uint256"
        },
        {
          "internalType": "uint256",
          "name": "stock",
          "type": "uint256"
        }
      ],
      "stateMutability": "view",
      "type": "function"
    },
    {
      "inputs": [
        {
          "internalType": "string",
          "name": "_name",
          "type": "string"
        },
        {
          "internalType": "string",
          "name": "_category",
          "type": "string"
        },
        {
          "internalType": "string",
          "name": "_description",
          "type": "string"
        },
        {
          "internalType": "string",
          "name": "_image",
          "type": "string"
        },
        {
          "internalType": "uint256",
          "name": "_cost",
          "type": "uint256"
        },
        {
          "internalType": "uint256",
          "name": "_rating",
          "type": "uint256"
        },
        {
          "internalType": "uint256",
          "name": "_stock",
          "type": "uint256"
        }
      ],
      "name": "list",
      "outputs": [],
      "stateMutability": "nonpayable",
      "type": "function"
    },
    {
      "inputs": [
        {
          "internalType": "address",
          "name": "",
          "type": "address"
        }
      ],
      "name": "orderCount",
      "outputs": [
        {
          "internalType": "uint256",
          "name": "",
          "type": "uint256"
        }
      ],
      "stateMutability": "view",
      "type": "function"
    },
    {
      "inputs": [
        {
          "internalType": "address",
          "name": "",
          "type": "address"
        },
        {
          "internalType": "uint256",
          "name": "",
          "type": "uint256"
        }
      ],
      "name": "orders",
      "outputs": [
        {
          "internalType": "uint256",
          "name": "time",
          "type": "uint256"
        },
        {
          "components": [
            {
              "internalType": "uint256",
              "name": "id",
              "type": "uint256"
            },
            {
              "internalType": "string",
              "name": "name",
              "type": "string"
            },
            {
              "internalType": "string",
              "name": "category",
              "type": "string"
            },
            {
              "internalType": "string",
              "name": "description",
              "type": "string"
            },
            {
              "internalType": "string",
              "name": "image",
              "type": "string"
            },
            {
              "internalType": "uint256",
              "name": "cost",
              "type": "uint256"
            },
            {
              "internalType": "uint256",
              "name": "rating",
              "type": "uint256"
            },
            {
              "internalType": "uint256",
              "name": "stock",
              "type": "uint256"
            }
          ],
          "internalType": "struct Decentralazon.Item",
          "name": "item",
          "type": "tuple"
        }
      ],
      "stateMutability": "view",
      "type": "function"
    },
    {
      "inputs": [],
      "name": "owner",
      "outputs": [
        {
          "internalType": "address",
          "name": "",
          "type": "address"
        }
      ],
      "stateMutability": "view",
      "type": "function"
    },
    {
      "inputs": [],
      "name": "withdraw",
      "outputs": [],
      "stateMutability": "nonpayable",
      "type": "function"
    }
  ],
  "transactionHash": "0x6f6a127a91349a75b0d9a64c7ecd87f00f6c021065b80afdb7e2bc27e0bffaa1",
  "args": [],
  "numDeployments": 1,
  "solcInputHash": "06803b7714c262a58e00a93d6b73e346",
  "bytecode": "0x6080604052600060015534801561001557600080fd5b50336000806101000a81548173ffffffffffffffffffffffffffffffffffffffff021916908373ffffffffffffffffffffffffffffffffffffffff160217905550611cba806100656000396000f3fe60806040526004361061007b5760003560e01c80638da5cb5b1161004e5780638da5cb5b1461013d578063bb74f91814610168578063bfb231d214610191578063d96a094a146101d55761007b565b80633ccfd60b14610080578063713d856b1461009757806377f98616146100d4578063793b8c6d146100ff575b600080fd5b34801561008c57600080fd5b506100956101f1565b005b3480156100a357600080fd5b506100be60048036038101906100b99190611053565b61034f565b6040516100cb9190611099565b60405180910390f35b3480156100e057600080fd5b506100e9610367565b6040516100f69190611099565b60405180910390f35b34801561010b57600080fd5b50610126600480360381019061012191906110e0565b610371565b604051610134929190611284565b60405180910390f35b34801561014957600080fd5b5061015261061d565b60405161015f91906112c3565b60405180910390f35b34801561017457600080fd5b5061018f600480360381019061018a9190611413565b610641565b005b34801561019d57600080fd5b506101b860048036038101906101b39190611525565b610814565b6040516101cc98979695949392919061159c565b60405180910390f35b6101ef60048036038101906101ea9190611525565b610a7c565b005b60008054906101000a900473ffffffffffffffffffffffffffffffffffffffff1673ffffffffffffffffffffffffffffffffffffffff163373ffffffffffffffffffffffffffffffffffffffff161461027f576040517f08c379a0000000000000000000000000000000000000000000000000000000008152600401610276906116a8565b60405180910390fd5b60008060009054906101000a900473ffffffffffffffffffffffffffffffffffffffff1673ffffffffffffffffffffffffffffffffffffffff16476040516102c6906116f9565b60006040518083038185875af1925050503d8060008114610303576040519150601f19603f3d011682016040523d82523d6000602084013e610308565b606091505b505090508061034c576040517f08c379a00000000000000000000000000000000000000000000000000000000081526004016103439061175a565b60405180910390fd5b50565b60036020528060005260406000206000915090505481565b6000600154905090565b6004602052816000526040600020602052806000526040600020600091509150508060000154908060010160405180610100016040529081600082015481526020016001820180546103c2906117a9565b80601f01602080910402602001604051908101604052809291908181526020018280546103ee906117a9565b801561043b5780601f106104105761010080835404028352916020019161043b565b820191906000526020600020905b81548152906001019060200180831161041e57829003601f168201915b50505050508152602001600282018054610454906117a9565b80601f0160208091040260200160405190810160405280929190818152602001828054610480906117a9565b80156104cd5780601f106104a2576101008083540402835291602001916104cd565b820191906000526020600020905b8154815290600101906020018083116104b057829003601f168201915b505050505081526020016003820180546104e6906117a9565b80601f0160208091040260200160405190810160405280929190818152602001828054610512906117a9565b801561055f5780601f106105345761010080835404028352916020019161055f565b820191906000526020600020905b81548152906001019060200180831161054257829003601f168201915b50505050508152602001600482018054610578906117a9565b80601f01602080910402602001604051908101604052809291908181526020018280546105a4906117a9565b80156105f15780601f106105c6576101008083540402835291602001916105f1565b820191906000526020600020905b8154815290600101906020018083116105d457829003601f168201915b505050505081526020016005820154815260200160068201548152602001600782015481525050905082565b60008054906101000a900473ffffffffffffffffffffffffffffffffffffffff1681565b60008054906101000a900473ffffffffffffffffffffffffffffffffffffffff1673ffffffffffffffffffffffffffffffffffffffff163373ffffffffffffffffffffffffffffffffffffffff16146106cf576040517f08c379a00000000000000000000000000000000000000000000000000000000081526004016106c6906116a8565b60405180910390fd5b6000600180546106df9190611809565b905060006040518061010001604052808381526020018a8152602001898152602001888152602001878152602001868152602001858152602001848152509050806002600084815260200190815260200160002060008201518160000155602082015181600101908161075291906119e9565b50604082015181600201908161076891906119e9565b50606082015181600301908161077e91906119e9565b50608082015181600401908161079491906119e9565b5060a0820151816005015560c0820151816006015560e08201518160070155905050600160008154809291906107c990611abb565b91905055507ffdbe2a012c10ec01592653978eaa09b5ca60b143a0e617505b2ebcbd911ec5b889868560405161080193929190611b03565b60405180910390a1505050505050505050565b600260205280600052604060002060009150905080600001549080600101805461083d906117a9565b80601f0160208091040260200160405190810160405280929190818152602001828054610869906117a9565b80156108b65780601f1061088b576101008083540402835291602001916108b6565b820191906000526020600020905b81548152906001019060200180831161089957829003601f168201915b5050505050908060020180546108cb906117a9565b80601f01602080910402602001604051908101604052809291908181526020018280546108f7906117a9565b80156109445780601f1061091957610100808354040283529160200191610944565b820191906000526020600020905b81548152906001019060200180831161092757829003601f168201915b505050505090806003018054610959906117a9565b80601f0160208091040260200160405190810160405280929190818152602001828054610985906117a9565b80156109d25780601f106109a7576101008083540402835291602001916109d2565b820191906000526020600020905b8154815290600101906020018083116109b557829003601f168201915b5050505050908060040180546109e7906117a9565b80601f0160208091040260200160405190810160405280929190818152602001828054610a13906117a9565b8015610a605780601f10610a3557610100808354040283529160200191610a60565b820191906000526020600020905b815481529060010190602001808311610a4357829003601f168201915b5050505050908060050154908060060154908060070154905088565b6000600260008381526020019081526020016000206040518061010001604052908160008201548152602001600182018054610ab7906117a9565b80601f0160208091040260200160405190810160405280929190818152602001828054610ae3906117a9565b8015610b305780601f10610b0557610100808354040283529160200191610b30565b820191906000526020600020905b815481529060010190602001808311610b1357829003601f168201915b50505050508152602001600282018054610b49906117a9565b80601f0160208091040260200160405190810160405280929190818152602001828054610b75906117a9565b8015610bc25780601f10610b9757610100808354040283529160200191610bc2565b820191906000526020600020905b815481529060010190602001808311610ba557829003601f168201915b50505050508152602001600382018054610bdb906117a9565b80601f0160208091040260200160405190810160405280929190818152602001828054610c07906117a9565b8015610c545780601f10610c2957610100808354040283529160200191610c54565b820191906000526020600020905b815481529060010190602001808311610c3757829003601f168201915b50505050508152602001600482018054610c6d906117a9565b80601f0160208091040260200160405190810160405280929190818152602001828054610c99906117a9565b8015610ce65780601f10610cbb57610100808354040283529160200191610ce6565b820191906000526020600020905b815481529060010190602001808311610cc957829003601f168201915b50505050508152602001600582015481526020016006820154815260200160078201548152505090508060a00151341015610d56576040517f08c379a0000000000000000000000000000000000000000000000000000000008152600401610d4d90611b8d565b60405180910390fd5b60008160e0015111610d9d576040517f08c379a0000000000000000000000000000000000000000000000000000000008152600401610d9490611bf9565b60405180910390fd5b60006040518060400160405280428152602001838152509050600360003373ffffffffffffffffffffffffffffffffffffffff1673ffffffffffffffffffffffffffffffffffffffff1681526020019081526020016000206000815480929190610e0690611abb565b919050555080600460003373ffffffffffffffffffffffffffffffffffffffff1673ffffffffffffffffffffffffffffffffffffffff1681526020019081526020016000206000600360003373ffffffffffffffffffffffffffffffffffffffff1673ffffffffffffffffffffffffffffffffffffffff16815260200190815260200160002054815260200190815260200160002060008201518160000155602082015181600101600082015181600001556020820151816001019081610ecd91906119e9565b506040820151816002019081610ee391906119e9565b506060820151816003019081610ef991906119e9565b506080820151816004019081610f0f91906119e9565b5060a0820151816005015560c0820151816006015560e08201518160070155505090505060018260e00151610f449190611c19565b60026000858152602001908152602001600020600701819055507f1cbc5ab135991bd2b6a4b034a04aa2aa086dac1371cb9b16b8b5e2ed6b036bed33600360003373ffffffffffffffffffffffffffffffffffffffff1673ffffffffffffffffffffffffffffffffffffffff168152602001908152602001600020548460000151604051610fd493929190611c4d565b60405180910390a1505050565b6000604051905090565b600080fd5b600080fd5b600073ffffffffffffffffffffffffffffffffffffffff82169050919050565b600061102082610ff5565b9050919050565b61103081611015565b811461103b57600080fd5b50565b60008135905061104d81611027565b92915050565b60006020828403121561106957611068610feb565b5b60006110778482850161103e565b91505092915050565b6000819050919050565b61109381611080565b82525050565b60006020820190506110ae600083018461108a565b92915050565b6110bd81611080565b81146110c857600080fd5b50565b6000813590506110da816110b4565b92915050565b600080604083850312156110f7576110f6610feb565b5b60006111058582860161103e565b9250506020611116858286016110cb565b9150509250929050565b61112981611080565b82525050565b600081519050919050565b600082825260208201905092915050565b60005b8381101561116957808201518184015260208101905061114e565b60008484015250505050565b6000601f19601f8301169050919050565b60006111918261112f565b61119b818561113a565b93506111ab81856020860161114b565b6111b481611175565b840191505092915050565b6000610100830160008301516111d86000860182611120565b50602083015184820360208601526111f08282611186565b9150506040830151848203604086015261120a8282611186565b915050606083015184820360608601526112248282611186565b9150506080830151848203608086015261123e8282611186565b91505060a083015161125360a0860182611120565b5060c083015161126660c0860182611120565b5060e083015161127960e0860182611120565b508091505092915050565b6000604082019050611299600083018561108a565b81810360208301526112ab81846111bf565b90509392505050565b6112bd81611015565b82525050565b60006020820190506112d860008301846112b4565b92915050565b600080fd5b600080fd5b7f4e487b7100000000000000000000000000000000000000000000000000000000600052604160045260246000fd5b61132082611175565b810181811067ffffffffffffffff8211171561133f5761133e6112e8565b5b80604052505050565b6000611352610fe1565b905061135e8282611317565b919050565b600067ffffffffffffffff82111561137e5761137d6112e8565b5b61138782611175565b9050602081019050919050565b82818337600083830152505050565b60006113b66113b184611363565b611348565b9050828152602081018484840111156113d2576113d16112e3565b5b6113dd848285611394565b509392505050565b600082601f8301126113fa576113f96112de565b5b813561140a8482602086016113a3565b91505092915050565b600080600080600080600060e0888a03121561143257611431610feb565b5b600088013567ffffffffffffffff8111156114505761144f610ff0565b5b61145c8a828b016113e5565b975050602088013567ffffffffffffffff81111561147d5761147c610ff0565b5b6114898a828b016113e5565b965050604088013567ffffffffffffffff8111156114aa576114a9610ff0565b5b6114b68a828b016113e5565b955050606088013567ffffffffffffffff8111156114d7576114d6610ff0565b5b6114e38a828b016113e5565b94505060806114f48a828b016110cb565b93505060a06115058a828b016110cb565b92505060c06115168a828b016110cb565b91505092959891949750929550565b60006020828403121561153b5761153a610feb565b5b6000611549848285016110cb565b91505092915050565b600082825260208201905092915050565b600061156e8261112f565b6115788185611552565b935061158881856020860161114b565b61159181611175565b840191505092915050565b6000610100820190506115b2600083018b61108a565b81810360208301526115c4818a611563565b905081810360408301526115d88189611563565b905081810360608301526115ec8188611563565b905081810360808301526116008187611563565b905061160f60a083018661108a565b61161c60c083018561108a565b61162960e083018461108a565b9998505050505050505050565b7f4f6e6c79204f776e657220697320616c6c6f77656420746f2043616c6c20746860008201527f69732066756e6374696f6e000000000000000000000000000000000000000000602082015250565b6000611692602b83611552565b915061169d82611636565b604082019050919050565b600060208201905081810360008301526116c181611685565b9050919050565b600081905092915050565b50565b60006116e36000836116c8565b91506116ee826116d3565b600082019050919050565b6000611704826116d6565b9150819050919050565b7f7769746864726177206661696c65642100000000000000000000000000000000600082015250565b6000611744601083611552565b915061174f8261170e565b602082019050919050565b6000602082019050818103600083015261177381611737565b9050919050565b7f4e487b7100000000000000000000000000000000000000000000000000000000600052602260045260246000fd5b600060028204905060018216806117c157607f821691505b6020821081036117d4576117d361177a565b5b50919050565b7f4e487b7100000000000000000000000000000000000000000000000000000000600052601160045260246000fd5b600061181482611080565b915061181f83611080565b9250828201905080821115611837576118366117da565b5b92915050565b60008190508160005260206000209050919050565b60006020601f8301049050919050565b600082821b905092915050565b60006008830261189f7fffffffffffffffffffffffffffffffffffffffffffffffffffffffffffffffff82611862565b6118a98683611862565b95508019841693508086168417925050509392505050565b6000819050919050565b60006118e66118e16118dc84611080565b6118c1565b611080565b9050919050565b6000819050919050565b611900836118cb565b61191461190c826118ed565b84845461186f565b825550505050565b600090565b61192961191c565b6119348184846118f7565b505050565b5b818110156119585761194d600082611921565b60018101905061193a565b5050565b601f82111561199d5761196e8161183d565b61197784611852565b81016020851015611986578190505b61199a61199285611852565b830182611939565b50505b505050565b600082821c905092915050565b60006119c0600019846008026119a2565b1980831691505092915050565b60006119d983836119af565b9150826002028217905092915050565b6119f28261112f565b67ffffffffffffffff811115611a0b57611a0a6112e8565b5b611a1582546117a9565b611a2082828561195c565b600060209050601f831160018114611a535760008415611a41578287015190505b611a4b85826119cd565b865550611ab3565b601f198416611a618661183d565b60005b82811015611a8957848901518255600182019150602085019450602081019050611a64565b86831015611aa65784890151611aa2601f8916826119af565b8355505b6001600288020188555050505b505050505050565b6000611ac682611080565b91507fffffffffffffffffffffffffffffffffffffffffffffffffffffffffffffffff8203611af857611af76117da565b5b600182019050919050565b60006060820190508181036000830152611b1d8186611563565b9050611b2c602083018561108a565b611b39604083018461108a565b949350505050565b7f4e65656420746f2073656e6420656e6f756768204554482e0000000000000000600082015250565b6000611b77601883611552565b9150611b8282611b41565b602082019050919050565b60006020820190508181036000830152611ba681611b6a565b9050919050565b7f536f727279212120446f6e2774206861766520656e6f7567682073746f636b00600082015250565b6000611be3601f83611552565b9150611bee82611bad565b602082019050919050565b60006020820190508181036000830152611c1281611bd6565b9050919050565b6000611c2482611080565b9150611c2f83611080565b9250828203905081811115611c4757611c466117da565b5b92915050565b6000606082019050611c6260008301866112b4565b611c6f602083018561108a565b611c7c604083018461108a565b94935050505056fea2646970667358221220d5a5f7134819617062fb00b32a1fc37f6ff1b0d8d8ef499d86a6f682b80db8f864736f6c63430008120033",
  "devdoc": {
    "kind": "dev",
    "methods": {},
    "version": 1
  },
  "userdoc": {
    "kind": "user",
    "methods": {},
    "version": 1
  },
  "storageLayout": {
    "storage": [
      {
        "astId": 3,
        "contract": "contracts/Decentralazon.sol:Decentralazon",
        "label": "owner",
        "offset": 0,
        "slot": "0",
        "type": "t_address"
      },
      {
        "astId": 29,
        "contract": "contracts/Decentralazon.sol:Decentralazon",
        "label": "s_numberOfProducts",
        "offset": 0,
        "slot": "1",
        "type": "t_uint256"
      },
      {
        "astId": 34,
        "contract": "contracts/Decentralazon.sol:Decentralazon",
        "label": "items",
        "offset": 0,
        "slot": "2",
        "type": "t_mapping(t_uint256,t_struct(Item)20_storage)"
      },
      {
        "astId": 38,
        "contract": "contracts/Decentralazon.sol:Decentralazon",
        "label": "orderCount",
        "offset": 0,
        "slot": "3",
        "type": "t_mapping(t_address,t_uint256)"
      },
      {
        "astId": 45,
        "contract": "contracts/Decentralazon.sol:Decentralazon",
        "label": "orders",
        "offset": 0,
        "slot": "4",
        "type": "t_mapping(t_address,t_mapping(t_uint256,t_struct(Order)26_storage))"
      }
    ],
    "types": {
      "t_address": {
        "encoding": "inplace",
        "label": "address",
        "numberOfBytes": "20"
      },
      "t_mapping(t_address,t_mapping(t_uint256,t_struct(Order)26_storage))": {
        "encoding": "mapping",
        "key": "t_address",
        "label": "mapping(address => mapping(uint256 => struct Decentralazon.Order))",
        "numberOfBytes": "32",
        "value": "t_mapping(t_uint256,t_struct(Order)26_storage)"
      },
      "t_mapping(t_address,t_uint256)": {
        "encoding": "mapping",
        "key": "t_address",
        "label": "mapping(address => uint256)",
        "numberOfBytes": "32",
        "value": "t_uint256"
      },
      "t_mapping(t_uint256,t_struct(Item)20_storage)": {
        "encoding": "mapping",
        "key": "t_uint256",
        "label": "mapping(uint256 => struct Decentralazon.Item)",
        "numberOfBytes": "32",
        "value": "t_struct(Item)20_storage"
      },
      "t_mapping(t_uint256,t_struct(Order)26_storage)": {
        "encoding": "mapping",
        "key": "t_uint256",
        "label": "mapping(uint256 => struct Decentralazon.Order)",
        "numberOfBytes": "32",
        "value": "t_struct(Order)26_storage"
      },
      "t_string_storage": {
        "encoding": "bytes",
        "label": "string",
        "numberOfBytes": "32"
      },
      "t_struct(Item)20_storage": {
        "encoding": "inplace",
        "label": "struct Decentralazon.Item",
        "members": [
          {
            "astId": 5,
            "contract": "contracts/Decentralazon.sol:Decentralazon",
            "label": "id",
            "offset": 0,
            "slot": "0",
            "type": "t_uint256"
          },
          {
            "astId": 7,
            "contract": "contracts/Decentralazon.sol:Decentralazon",
            "label": "name",
            "offset": 0,
            "slot": "1",
            "type": "t_string_storage"
          },
          {
            "astId": 9,
            "contract": "contracts/Decentralazon.sol:Decentralazon",
            "label": "category",
            "offset": 0,
            "slot": "2",
            "type": "t_string_storage"
          },
          {
            "astId": 11,
            "contract": "contracts/Decentralazon.sol:Decentralazon",
            "label": "description",
            "offset": 0,
            "slot": "3",
            "type": "t_string_storage"
          },
          {
            "astId": 13,
            "contract": "contracts/Decentralazon.sol:Decentralazon",
            "label": "image",
            "offset": 0,
            "slot": "4",
            "type": "t_string_storage"
          },
          {
            "astId": 15,
            "contract": "contracts/Decentralazon.sol:Decentralazon",
            "label": "cost",
            "offset": 0,
            "slot": "5",
            "type": "t_uint256"
          },
          {
            "astId": 17,
            "contract": "contracts/Decentralazon.sol:Decentralazon",
            "label": "rating",
            "offset": 0,
            "slot": "6",
            "type": "t_uint256"
          },
          {
            "astId": 19,
            "contract": "contracts/Decentralazon.sol:Decentralazon",
            "label": "stock",
            "offset": 0,
            "slot": "7",
            "type": "t_uint256"
          }
        ],
        "numberOfBytes": "256"
      },
      "t_struct(Order)26_storage": {
        "encoding": "inplace",
        "label": "struct Decentralazon.Order",
        "members": [
          {
            "astId": 22,
            "contract": "contracts/Decentralazon.sol:Decentralazon",
            "label": "time",
            "offset": 0,
            "slot": "0",
            "type": "t_uint256"
          },
          {
            "astId": 25,
            "contract": "contracts/Decentralazon.sol:Decentralazon",
            "label": "item",
            "offset": 0,
            "slot": "1",
            "type": "t_struct(Item)20_storage"
          }
        ],
        "numberOfBytes": "288"
      },
      "t_uint256": {
        "encoding": "inplace",
        "label": "uint256",
        "numberOfBytes": "32"
      }
    }
  }
}